{
  "contractName": "SupplyChain",
  "abi": [
    {
      "constant": true,
      "inputs": [
        {
          "name": "",
          "type": "uint256"
        }
      ],
      "name": "items",
      "outputs": [
        {
          "name": "name",
          "type": "string"
        },
        {
          "name": "sku",
          "type": "uint256"
        },
        {
          "name": "price",
          "type": "uint256"
        },
        {
          "name": "state",
          "type": "uint8"
        },
        {
          "name": "seller",
          "type": "address"
        },
        {
          "name": "buyer",
          "type": "address"
        }
      ],
      "payable": false,
      "stateMutability": "view",
      "type": "function"
    },
    {
      "inputs": [],
      "payable": false,
      "stateMutability": "nonpayable",
      "type": "constructor"
    },
    {
      "anonymous": false,
      "inputs": [
        {
          "indexed": true,
          "name": "sku",
          "type": "uint256"
        }
      ],
      "name": "ForSale",
      "type": "event"
    },
    {
      "anonymous": false,
      "inputs": [
        {
          "indexed": true,
          "name": "sku",
          "type": "uint256"
        }
      ],
      "name": "Sold",
      "type": "event"
    },
    {
      "anonymous": false,
      "inputs": [
        {
          "indexed": true,
          "name": "sku",
          "type": "uint256"
        }
      ],
      "name": "Shipped",
      "type": "event"
    },
    {
      "anonymous": false,
      "inputs": [
        {
          "indexed": true,
          "name": "sku",
          "type": "uint256"
        }
      ],
      "name": "Received",
      "type": "event"
    },
    {
      "constant": false,
      "inputs": [
        {
          "name": "_name",
          "type": "string"
        },
        {
          "name": "_price",
          "type": "uint256"
        }
      ],
      "name": "addItem",
      "outputs": [
        {
          "name": "",
          "type": "bool"
        }
      ],
      "payable": false,
      "stateMutability": "nonpayable",
      "type": "function"
    },
    {
      "constant": false,
      "inputs": [
        {
          "name": "sku",
          "type": "uint256"
        }
      ],
      "name": "buyItem",
      "outputs": [
        {
          "name": "",
          "type": "bool"
        }
      ],
      "payable": true,
      "stateMutability": "payable",
      "type": "function"
    },
    {
      "constant": false,
      "inputs": [
        {
          "name": "sku",
          "type": "uint256"
        }
      ],
      "name": "shipItem",
      "outputs": [],
      "payable": false,
      "stateMutability": "nonpayable",
      "type": "function"
    },
    {
      "constant": false,
      "inputs": [
        {
          "name": "sku",
          "type": "uint256"
        }
      ],
      "name": "receiveItem",
      "outputs": [],
      "payable": false,
      "stateMutability": "nonpayable",
      "type": "function"
    },
    {
      "constant": true,
      "inputs": [
        {
          "name": "_sku",
          "type": "uint256"
        }
      ],
      "name": "fetchItem",
      "outputs": [
        {
          "name": "name",
          "type": "string"
        },
        {
          "name": "sku",
          "type": "uint256"
        },
        {
          "name": "price",
          "type": "uint256"
        },
        {
          "name": "state",
          "type": "uint256"
        },
        {
          "name": "seller",
          "type": "address"
        },
        {
          "name": "buyer",
          "type": "address"
        }
      ],
      "payable": false,
      "stateMutability": "view",
      "type": "function"
    }
  ],
  "bytecode": "0x608060405234801561001057600080fd5b50336000806101000a81548173ffffffffffffffffffffffffffffffffffffffff021916908373ffffffffffffffffffffffffffffffffffffffff160217905550600060018190555061105e806100686000396000f300608060405260043610610078576000357c0100000000000000000000000000000000000000000000000000000000900463ffffffff16806362d6bbdf1461007d578063a26be99914610108578063ad4b9cfb14610135578063bfb231d214610256578063e7fb74c714610385578063f61c899a146103bd575b600080fd5b34801561008957600080fd5b506100ee600480360381019080803590602001908201803590602001908080601f0160208091040260200160405190810160405280939291908181526020018383808284378201915050505050509192919290803590602001909291905050506103ea565b604051808215151515815260200191505060405180910390f35b34801561011457600080fd5b5061013360048036038101908080359060200190929190505050610599565b005b34801561014157600080fd5b506101606004803603810190808035906020019092919050505061078f565b60405180806020018781526020018681526020018581526020018473ffffffffffffffffffffffffffffffffffffffff1673ffffffffffffffffffffffffffffffffffffffff1681526020018373ffffffffffffffffffffffffffffffffffffffff1673ffffffffffffffffffffffffffffffffffffffff168152602001828103825288818151815260200191508051906020019080838360005b838110156102165780820151818401526020810190506101fb565b50505050905090810190601f1680156102435780820380516001836020036101000a031916815260200191505b5097505050505050505060405180910390f35b34801561026257600080fd5b506102816004803603810190808035906020019092919050505061093a565b60405180806020018781526020018681526020018560038111156102a157fe5b60ff1681526020018473ffffffffffffffffffffffffffffffffffffffff1673ffffffffffffffffffffffffffffffffffffffff1681526020018373ffffffffffffffffffffffffffffffffffffffff1673ffffffffffffffffffffffffffffffffffffffff168152602001828103825288818151815260200191508051906020019080838360005b8381101561034557808201518184015260208101905061032a565b50505050905090810190601f1680156103725780820380516001836020036101000a031916815260200191505b5097505050505050505060405180910390f35b6103a360048036038101908080359060200190929190505050610a5b565b604051808215151515815260200191505060405180910390f35b3480156103c957600080fd5b506103e860048036038101908080359060200190929190505050610d98565b005b60006001547fa96ae0fc3224ebd79eebfe54bd130cc9cb94416cddd1f2386115e00b7253246860405160405180910390a260c06040519081016040528084815260200160015481526020018381526020016000600381111561044857fe5b81526020013373ffffffffffffffffffffffffffffffffffffffff168152602001600073ffffffffffffffffffffffffffffffffffffffff1681525060026000600154815260200190815260200160002060008201518160000190805190602001906104b5929190610f8d565b50602082015181600101556040820151816002015560608201518160030160006101000a81548160ff021916908360038111156104ee57fe5b021790555060808201518160030160016101000a81548173ffffffffffffffffffffffffffffffffffffffff021916908373ffffffffffffffffffffffffffffffffffffffff16021790555060a08201518160040160006101000a81548173ffffffffffffffffffffffffffffffffffffffff021916908373ffffffffffffffffffffffffffffffffffffffff16021790555090505060018054016001819055506001905092915050565b80600260038111156105a757fe5b6002600083815260200190815260200160002060030160009054906101000a900460ff1660038111156105d657fe5b14151561064b576040517f08c379a00000000000000000000000000000000000000000000000000000000081526004018080602001828103825260168152602001807f526571756972657320746f20626520536869707065640000000000000000000081525060200191505060405180910390fd5b6002600083815260200190815260200160002060040160009054906101000a900473ffffffffffffffffffffffffffffffffffffffff168073ffffffffffffffffffffffffffffffffffffffff163373ffffffffffffffffffffffffffffffffffffffff16141515610725576040517f08c379a000000000000000000000000000000000000000000000000000000000815260040180806020018281038252601b8152602001807f436865636b732069662073656e64657220697320636f7272656374000000000081525060200191505060405180910390fd5b827fa8142743f8f70a4c26f3691cf4ed59718381fb2f18070ec52be1f1022d85555760405160405180910390a260036002600085815260200190815260200160002060030160006101000a81548160ff0219169083600381111561078557fe5b0217905550505050565b60606000806000806000600260008881526020019081526020016000206000018054600181600116156101000203166002900480601f0160208091040260200160405190810160405280929190818152602001828054600181600116156101000203166002900480156108435780601f1061081857610100808354040283529160200191610843565b820191906000526020600020905b81548152906001019060200180831161082657829003601f168201915b5050505050955060026000888152602001908152602001600020600101549450600260008881526020019081526020016000206002015493506002600088815260200190815260200160002060030160009054906101000a900460ff1660038111156108ab57fe5b92506002600088815260200190815260200160002060030160019054906101000a900473ffffffffffffffffffffffffffffffffffffffff1691506002600088815260200190815260200160002060040160009054906101000a900473ffffffffffffffffffffffffffffffffffffffff16905085858585858595509550955095509550955091939550919395565b6002602052806000526040600020600091509050806000018054600181600116156101000203166002900480601f0160208091040260200160405190810160405280929190818152602001828054600181600116156101000203166002900480156109e65780601f106109bb576101008083540402835291602001916109e6565b820191906000526020600020905b8154815290600101906020018083116109c957829003601f168201915b5050505050908060010154908060020154908060030160009054906101000a900460ff16908060030160019054906101000a900473ffffffffffffffffffffffffffffffffffffffff16908060040160009054906101000a900473ffffffffffffffffffffffffffffffffffffffff16905086565b60008160006003811115610a6b57fe5b6002600083815260200190815260200160002060030160009054906101000a900460ff166003811115610a9a57fe5b141515610b0f576040517f08c379a00000000000000000000000000000000000000000000000000000000081526004018080602001828103825260178152602001807f526571756972657320746f20626520466f722053616c6500000000000000000081525060200191505060405180910390fd5b6002600084815260200190815260200160002060020154803410151515610b9e576040517f08c379a00000000000000000000000000000000000000000000000000000000081526004018080602001828103825260148152602001807f436865636b206966207061696420656e6f75676800000000000000000000000081525060200191505060405180910390fd5b83600080867f92f64ca637d023f354075a4be751b169c1a8a9ccb6d33cdd0cb352054399572760405160405180910390a26002600088815260200190815260200160002060030160019054906101000a900473ffffffffffffffffffffffffffffffffffffffff1673ffffffffffffffffffffffffffffffffffffffff166108fc600260008a8152602001908152602001600020600201549081150290604051600060405180830381858888f19350505050158015610c61573d6000803e3d6000fd5b50336002600089815260200190815260200160002060040160006101000a81548173ffffffffffffffffffffffffffffffffffffffff021916908373ffffffffffffffffffffffffffffffffffffffff16021790555060016002600089815260200190815260200160002060030160006101000a81548160ff02191690836003811115610cea57fe5b0217905550600195506002600084815260200190815260200160002060020154915081340390506002600084815260200190815260200160002060040160009054906101000a900473ffffffffffffffffffffffffffffffffffffffff1673ffffffffffffffffffffffffffffffffffffffff166108fc829081150290604051600060405180830381858888f19350505050158015610d8d573d6000803e3d6000fd5b505050505050919050565b8060016003811115610da657fe5b6002600083815260200190815260200160002060030160009054906101000a900460ff166003811115610dd557fe5b141515610e4a576040517f08c379a00000000000000000000000000000000000000000000000000000000081526004018080602001828103825260138152602001807f526571756972657320746f20626520536f6c640000000000000000000000000081525060200191505060405180910390fd5b6002600083815260200190815260200160002060030160019054906101000a900473ffffffffffffffffffffffffffffffffffffffff168073ffffffffffffffffffffffffffffffffffffffff163373ffffffffffffffffffffffffffffffffffffffff16141515610f24576040517f08c379a000000000000000000000000000000000000000000000000000000000815260040180806020018281038252601b8152602001807f436865636b732069662073656e64657220697320636f7272656374000000000081525060200191505060405180910390fd5b827ff00b9a5725b80c54016f42114f6ed7792d22eecb116011c4afac29c57bef6c9560405160405180910390a2600280600085815260200190815260200160002060030160006101000a81548160ff02191690836003811115610f8357fe5b0217905550505050565b828054600181600116156101000203166002900490600052602060002090601f016020900481019282601f10610fce57805160ff1916838001178555610ffc565b82800160010185558215610ffc579182015b82811115610ffb578251825591602001919060010190610fe0565b5b509050611009919061100d565b5090565b61102f91905b8082111561102b576000816000905550600101611013565b5090565b905600a165627a7a723058204a85c71588fb0ad53d0ae8452da2ad5d209472c6035e42c783a24284e59a383c0029",
  "source": "pragma solidity ^0.4.23;\r\n\r\ncontract SupplyChain {\r\n\r\n    /* set owner */\r\n    address owner;\r\n\r\n    /* Add a variable called skuCount to track the most recent sku # */\r\n    uint skuCount;\r\n\r\n    /* Add a line that creates a public mapping that maps the SKU (a number) to an Item.\r\n      Call this mappings items\r\n    */\r\n    mapping (uint => Item) public items;\r\n\r\n    /* Add a line that creates an enum called State. This should have 4 states\r\n      ForSale\r\n      Sold\r\n      Shipped\r\n      Received\r\n      (declaring them in this order is important for testing)\r\n    */\r\n    enum State { ForSale, Sold, Shipped, Received }\r\n\r\n    /* Create a struct named Item.\r\n      Here, add a name, sku, price, state, seller, and buyer\r\n      We've left you to figure out what the appropriate types are,\r\n      if you need help you can ask around :)\r\n    */\r\n    struct Item {\r\n        string name;\r\n        uint sku;\r\n        uint price;\r\n        State state;\r\n        address seller;\r\n        address buyer;\r\n    }\r\n\r\n    /* Create 4 events with the same name as each possible State (see above)\r\n      Each event should accept one argument, the sku*/\r\n    event ForSale(uint indexed sku);\r\n    event Sold(uint indexed sku);\r\n    event Shipped(uint indexed sku);\r\n    event Received(uint indexed sku);\r\n\r\n  /* Create a modifer that checks if the msg.sender is the owner of the contract */\r\n\r\n    modifier verifyCaller (address _address) { \r\n        require (msg.sender == _address, \"Checks if sender is correct\"); \r\n        _;\r\n    }\r\n\r\n    modifier paidEnough(uint _price) { \r\n        require(msg.value >= _price, \"Check if paid enough\");\r\n        _;\r\n    }\r\n    modifier checkValue(uint _sku) {\r\n      //refund them after pay for item (why it is before, _ checks for logic before func)\r\n        _;\r\n        uint _price = items[_sku].price;\r\n        uint amountToRefund = msg.value - _price;\r\n        items[_sku].buyer.transfer(amountToRefund);\r\n    }\r\n\r\n    /* For each of the following modifiers, use what you learned about modifiers\r\n    to give them functionality. For example, the forSale modifier should require\r\n    that the item with the given sku has the state ForSale. */\r\n    modifier forSale (uint _sku) {\r\n        require(items[_sku].state == State.ForSale, \"Requires to be For Sale\");\r\n        _;\r\n    }\r\n\r\n    modifier sold (uint _sku) {\r\n        require(items[_sku].state == State.Sold, \"Requires to be Sold\");\r\n        _;\r\n    }\r\n\r\n    modifier shipped (uint _sku) {\r\n        require(items[_sku].state == State.Shipped, \"Requires to be Shipped\");\r\n        _;\r\n    }\r\n\r\n    modifier received (uint _sku) {\r\n        require(items[_sku].state == State.Received, \"Requires to be Received\");\r\n        _;\r\n    }\r\n\r\n\r\n    constructor() public {\r\n      /* Here, set the owner as the person who instantiated the contract\r\n        and set your skuCount to 0. */\r\n        owner = msg.sender;\r\n        skuCount = 0;\r\n    }\r\n\r\n    function addItem(string _name, uint _price) public returns(bool){\r\n        emit ForSale(skuCount);\r\n        items[skuCount] = Item({name: _name, sku: skuCount, price: _price, state: State.ForSale, seller: msg.sender, buyer: 0});\r\n        skuCount = skuCount + 1;\r\n        return true;\r\n    }\r\n\r\n    /* Add a keyword so the function can be paid. This function should transfer money\r\n      to the seller, set the buyer as the person who called this transaction, and set the state\r\n      to Sold. Be careful, this function should use 3 modifiers to check if the item is for sale,\r\n      if the buyer paid enough, and check the value after the function is called to make sure the buyer is\r\n      refunded any excess ether sent. Remember to call the event associated with this function!*/\r\n\r\n    function buyItem(uint sku)\r\n      public payable forSale(sku) paidEnough(items[sku].price) checkValue(sku) returns(bool)\r\n    {\r\n        emit Sold(sku);\r\n        items[sku].seller.transfer(items[sku].price);\r\n        items[sku].buyer = msg.sender;\r\n        items[sku].state = State.Sold;\r\n        return true;\r\n    }\r\n\r\n    /* Add 2 modifiers to check if the item is sold already, and that the person calling this function\r\n    is the seller. Change the state of the item to shipped. Remember to call the event associated with this function!*/\r\n    function shipItem(uint sku)\r\n      public sold(sku) verifyCaller(items[sku].seller)\r\n    {\r\n        emit Shipped(sku);\r\n        items[sku].state = State.Shipped;\r\n    }\r\n\r\n    /* Add 2 modifiers to check if the item is shipped already, and that the person calling this function\r\n    is the buyer. Change the state of the item to received. Remember to call the event associated with this function!*/\r\n    function receiveItem(uint sku)\r\n      public shipped(sku) verifyCaller(items[sku].buyer)\r\n    {\r\n        emit Received(sku);\r\n        items[sku].state = State.Received;\r\n    }\r\n\r\n    /* We have these functions completed so we can run tests, just ignore it :) */\r\n    function fetchItem(uint _sku) public view returns (string name, uint sku, uint price, uint state, address seller, address buyer) {\r\n        name = items[_sku].name;\r\n        sku = items[_sku].sku;\r\n        price = items[_sku].price;\r\n        state = uint(items[_sku].state);\r\n        seller = items[_sku].seller;\r\n        buyer = items[_sku].buyer;\r\n        return (name, sku, price, state, seller, buyer);\r\n    }\r\n\r\n}\r\n",
  "sourcePath": "C:\\Projects\\Consensys\\supply-chain-memoishin\\contracts\\SupplyChain.sol",
  "compiler": {
    "name": "solc",
    "version": "0.4.24+commit.e67f0147.Emscripten.clang"
  },
  "schemaVersion": "2.0.1",
  "updatedAt": "2018-12-19T08:49:04.464Z"
}